:100000000C942A000C9445000C9447000C94450075
:100010000C9445000C9445000C9445000C9445004C
:100020000C9445000C9445000C9445000C9445003C
:100030000C9445000C9445000C9445000C9445002C
:100040000C9445000C9445000C9445000C9445001C
:100050000C94450011241FBECFE5D4E0DEBFCDBF18
:1000600010E0A0E6B0E0E8E9F8E102C005900D92EA
:10007000AA36B107D9F713E0AAE6B0E001C01D9295
:10008000A23AB107E1F70C94F0000C9400001F9223
:100090000F920FB60F9211242F933F934F935F93BC
:1000A0006F937F938F939F93AF93BF93EF93FF9340
:1000B000CF93DF93CDB7DEB72C97DEBFCDBF80E007
:1000C00090E0A0E8BFE389839A83AB83BC8320E000
:1000D00030E04AEF54E469817A818B819C810E94EF
:1000E0001D07DC01CB018F839887A987BA8720E0A1
:1000F00030E040E85FE36F81788589859A850E94CA
:10010000540988230CF005C081E090E09E838D8324
:100110001AC020E03FEF4FE757E46F81788589856B
:100120009A850E94E80818160CF003C01E821D82F2
:100130000AC06F81788589859A850E946905DC01EE
:10014000CB019E838D838D819E819C878B878B8540
:100150009C850197F1F79C878B878091390080956A
:10016000807180936B0080913900982F909580E882
:10017000892380936C0080913900809580728093F0
:100180006D00809139008095807480936E0080911D
:1001900033008095807480936F0080913300809548
:1001A000827080937000809133008095817080937D
:1001B00071002C96F894DEBFCDBFDF91CF91FF91F7
:1001C000EF91BF91AF919F918F917F916F915F91CF
:1001D0004F913F912F910F900FBE0F901F90189548
:1001E000CFE4D4E0DEBFCDBF80913A00877F80931B
:1001F0003A0083E68093270080E880932600809170
:1002000026008064809326008091260099278074C0
:100210009070009709F0F8CF809125009927880FFA
:10022000991F880F991FAA2797FDA095BA2FBC0187
:10023000CD010E948A09DC01CB0123E333E343E5CE
:1002400050E4BC01CD010E941D07DC01CB0120E080
:1002500030E040E854E4BC01CD010E943808DC01E4
:10026000CB0189839A83AB83BC832DEC3CEC4CE8B7
:100270005FE369817A818B819C810E945409882384
:100280000CF006C0809138008E7F8093380006C045
:10029000809138008E7F8160809338000E946102D7
:1002A0000E9446030E94100380E090E0A8E4B3E4BB
:1002B0008D839E83AF83B88720E030E04AEF54E41B
:1002C0006D817E818F8198850E941D07DC01CB01A5
:1002D0008B879C87AD87BE8720E030E040E85FE3F6
:1002E0006B857C858D859E850E94540988230CF042
:1002F00005C081E090E09A8789871AC020E03FEF2F
:100300004FE757E46B857C858D859E850E94E808C4
:1003100018160CF003C01A8619860AC06B857C85F6
:100320008D859E850E946905DC01CB019A878987AE
:1003300089859A85988B8F878F8598890197F1F7A2
:10034000988B8F8780916B00882369F08091600083
:10035000882321F480E48093600005C080916000D0
:1003600081508093600080916C00882361F08091BF
:100370006000803419F41092600005C08091600024
:100380008F5F8093600080916D00882369F0809179
:100390006100882321F486E68093610005C0809186
:1003A000610081508093610080916E00882361F02C
:1003B00080916100863619F41092610005C0809129
:1003C00061008F5F8093610080916F00882321F02E
:1003D0000E9410030E94460380917000809171007A
:1003E0008823C1F080916A00882321F48FEF8093E5
:1003F0006A000CC080916A00803118F410926A0083
:1004000005C080916A00805180936A0080916A00E3
:100410008093430080912600806480932600809121
:100420002600992780749070009709F0F8CF80918A
:1004300025009927880F991F880F991FAA2797FDD4
:10044000A095BA2FBC01CD010E948A09DC01CB0125
:1004500023E333E343E550E4BC01CD010E941D07D3
:10046000DC01CB0120E030E040E854E4BC01CD01E8
:100470000E943808DC01CB0189839A83AB83BC835B
:100480002DEC3CEC4CE85FE369817A818B819C81A7
:100490000E94540988230CF006C0809138008E7F9A
:1004A0008093380006C0809138008E7F81608093F1
:1004B00038004FEF60916100809160000E94B703A7
:1004C000F3CECF93DF93CDB7DEB780913700877F30
:1004D000886080933700809137008D7F82608093A1
:1004E0003700809137008F7E8061809337009FE7CF
:1004F00080913700982380E8892B80933700809182
:1005000037008F7D80628093370080913800877F2D
:100510008860809338000E94DF049FE7809131005B
:10052000982380E8892B8093310089E680934500E9
:100530008FE080934300809138008E7F81608093AC
:100540003800809137008E7F8160809337008091E2
:100550003A008F7E80933A0080913B008F7E8061CD
:1005600080933B009FE780913A00892380933A0073
:100570009FE780913B00982380E8892B80933B0084
:1005800080913A008F7D80933A0080913B008F7D6F
:10059000806280933B0080913A008F7B80933A0089
:1005A00080913B008F7B806480933B00809134007E
:1005B0008F7B80933400809135008F7B80648093A3
:1005C0003500809134008D7F809334008091350018
:1005D0008D7F826080933500809134008E7F809380
:1005E0003400809135008E7F81608093350080914A
:1005F0005B00806880935B0084E080935500789472
:1006000080913A00877F80933A0083E680932700A9
:1006100080E8809326000E941003DF91CF91089517
:10062000CF93DF93CDB7DEB722970FB6F894DEBF36
:100630000FBECDBF1A828A818636E8F4198289817D
:100640008034A8F48981282F33278A819927880F3D
:10065000991F880F991F880F991F820F931FFC0104
:10066000EE58FF4F108289818F5F8983E8CF8A819E
:100670008F5F8A83E0CF81E090E022960FB6F894F6
:10068000DEBF0FBECDBFDF91CF910895CF93DF9333
:10069000CDB7DEB722970FB6F894DEBF0FBECDBF41
:1006A000198289818830A8F489810E9472031A8294
:1006B0008A81863650F48A810E94930380E00E94EA
:1006C0002E048A818F5F8A83F3CF89818F5F89832C
:1006D000E8CF22960FB6F894DEBF0FBECDBFDF91F4
:1006E000CF910895CF93DF93CDB7DEB722970FB6A2
:1006F000F894DEBF0FBECDBF89838981893010F0A9
:1007000087E089838981806B8A838A810E9487043C
:1007100081E090E022960FB6F894DEBF0FBECDBF09
:10072000DF91CF910895CF93DF93CDB7DEB72397B5
:100730000FB6F894DEBF0FBECDBF898389818F705D
:100740008A83898182958F7080618B838A810E94E0
:1007500087048B810E94870481E090E023960FB686
:10076000F894DEBF0FBECDBFDF91CF910895CF9338
:10077000DF93CDB7DEB725970FB6F894DEBF0FBE77
:10078000CDBF89836A834B838A81873610F085E6E3
:100790008A838981813410F08FE3898389818695EA
:1007A000869586958C8389818770282F332781E0F1
:1007B00090E002C0880F991F2A95E2F78D838C8103
:1007C000282F33278A819927880F991F880F991F0F
:1007D000880F991F820F931FDC01AE58BF4F9D8178
:1007E0008B81492F48238C81282F33278A81992791
:1007F000880F991F880F991F880F991F820F931FC9
:10080000FC01EE58FF4F8D81982F909580818923B0
:10081000842B8C938C810E9472038A810E949303A3
:100820008C81282F33278A819927880F991F880F59
:10083000991F880F991F820F931FFC01EE58FF4FDD
:1008400080810E942E0481E090E025960FB6F894F6
:10085000DEBF0FBECDBFDF91CF910895CF93DF9361
:10086000CDB7DEB723970FB6F894DEBF0FBECDBF6E
:10087000898380E88B83809138008D7F8093380056
:10088000809138008F7E8061809338008B8188232F
:1008900029F199818B8189238A839FE78091380090
:1008A000982380E8892B809338008A81882339F047
:1008B000809138008F7D80628093380005C08091E0
:1008C00038008F7D809338009FE78091380089231E
:1008D000809338008B8186958B83D8CF9FE780915A
:1008E0003800982380E8892B809338008091380065
:1008F0008D7F82608093380081E090E023960FB670
:10090000F894DEBF0FBECDBFDF91CF910895CF9396
:10091000DF93CDB7DEB723970FB6F894DEBF0FBED7
:10092000CDBF898380E88B83809138008D7F809351
:100930003800809138008F7E809338008B81882327
:1009400029F199818B8189238A839FE780913800DF
:10095000982380E8892B809338008A81882339F096
:10096000809138008F7D80628093380005C080912F
:1009700038008F7D809338009FE78091380089236D
:10098000809338008B8186958B83D8CF9FE78091A9
:100990003800982380E8892B8093380080913800B4
:1009A0008D7F82608093380081E090E023960FB6BF
:1009B000F894DEBF0FBECDBFDF91CF910895CF93E6
:1009C000DF93CDB7DEB72C970FB6F894DEBF0FBE1E
:1009D000CDBF80E40E94870481EA0E94870480ECF6
:1009E0000E94870484EA0E94870486EA0E948704A2
:1009F00080E090E0A0EFB2E489839A83AB83BC836C
:100A000020E030E04AEF54E469817A818B819C8157
:100A10000E941D07DC01CB018F839887A987BA87C5
:100A200020E030E040E85FE36F81788589859A8532
:100A30000E94540988230CF005C081E090E09E8359
:100A40008D831AC020E03FEF4FE757E46F81788530
:100A500089859A850E94E80818160CF003C01E824A
:100A60001D820AC06F81788589859A850E946905F3
:100A7000DC01CB019E838D838D819E819C878B873A
:100A80008B859C850197F1F79C878B8782EA0E9472
:100A900087048FE20E94870487E20E94870481E82E
:100AA0000E94870480E10E9487048AEF0E948704E5
:100AB00080E90E9487048FEA0E94870481E090E029
:100AC0002C960FB6F894DEBF0FBECDBFDF91CF914D
:100AD0000895EF92FF920F931F937B018C0120E00A
:100AE00030E040E05FE40E941E0988239CF020E093
:100AF00030E040E05FECC801B7010E94B706DC01BE
:100B0000CB01BC01CD010E94EE09605070408040D5
:100B1000904804C0C801B7010E94EE091F910F91CF
:100B2000FF90EF900895A0E0B0E0E9E9F5E00C94C3
:100B3000150C8C017B015A01DC018C91823058F03C
:100B4000FB019081923010F4A7010BC1843029F48D
:100B5000943009F4A6C0A80104C19430A9F39230DE
:100B600009F4A9C0823081F3F801C280D380FB016F
:100B700062817381F8012481358146815781F701B3
:100B80006480758086809780C601861B970B97FDD1
:100B9000D8C080970CF46CC06C157D050CF0ADC00E
:100BA000662477244301F8016181F7018181681788
:100BB00009F499C0662309F491C0621A730A840A81
:100BC000950AA401930157FDC0C0F5011182B60139
:100BD00019012A0179018A0139014A010894610841
:100BE000710881089108FFEF6F16FFEF7F06FFEF96
:100BF0008F06FFE39F06F0F4A8019701220F331F31
:100C0000441F551F19012A01B601615070406B0144
:100C100079018A0139014A01089461087108810843
:100C200091088FEF68168FEF78068FEF88068FE3B5
:100C3000980610F383E0D5018C9357FC64C0F5014E
:100C4000248335834683578373836283A50189C0D8
:100C50006F5F7F4FD401C30181709070A070B0703E
:100C60009694879477946794682A792A8A2A9B2A8B
:100C70006C157D056CF311C00894C11CD11CDA0100
:100C8000C90181709070A070B070569547953795E6
:100C90002795282B392B4A2B5B2BC616D70664F3D6
:100CA00082CFF8019181FB018181981709F453CF1C
:100CB00042E650E056C0823009F04DCF88E0DA01BC
:100CC000F80101900D928A95E1F7F8018181FB010D
:100CD00091818923FA018183A50143C0261937092F
:100CE0004809590970CFF5016183B601260D371DFA
:100CF000481D591D19012A019DCF6B0120E030E0EC
:100D000040E050E050CFD201C101B695A79597952C
:100D1000879521E030E040E050E022223322442257
:100D20005522282A392A4A2A5B2AF501248235824B
:100D3000468257820894C11CD11CD382C282A5016D
:100D400010C0909581959F4F24CF81E0F50181835C
:100D5000B60150954095309521953F4F4F4F5F4FCD
:100D600037CFCA01E2E1CDB7DEB70C94310CA0E277
:100D7000B0E0EDEBF6E00C94230CDC01CB01898FA5
:100D80009A8FAB8FBC8F2D8F3E8F4F8F58A3BE0194
:100D90006F5F7F4FCE0149960E94280B8E01075F3F
:100DA0001F4FB801CE014D960E94280BAE014F5E39
:100DB0005F4FB801CE0101960E9493050E94400A40
:100DC000DC01CB01BC01CD01E4E0A0960C943F0C0A
:100DD000A0E2B0E0EEEEF6E00C94230CDC01CB01D7
:100DE000898F9A8FAB8FBC8F2D8F3E8F4F8F58A3DB
:100DF000BE016F5F7F4FCE0149960E94280B8E0186
:100E0000075F1F4FB801CE014D960E94280B8A85BF
:100E100091E089278A87AE014F5E5F4FB801CE010E
:100E200001960E9493050E94400ADC01CB01BC019F
:100E3000CD01E4E0A0960C943F0CA0E2B0E0E3E228
:100E4000F7E00C94150CDC01CB01898F9A8FAB8FE6
:100E5000BC8F2D8F3E8F4F8F58A3BE016F5F7F4F8A
:100E6000CE0149960E94280B69E070E06C0F7D1F4F
:100E7000CE014D960E94280BFE0131966624772400
:100E80004301130124018981823098F099859230C1
:100E900058F420E091818A85981321E02A8769E03F
:100EA00070E06C0F7D1FD9C0843059F4923009F482
:100EB0005BC020E091818A85981321E02183BF01E6
:100EC000CCC0943009F44DC0823099F3923009F3CC
:100ED000ED80FE800F8118852D853E854F855889D0
:100EE000640153016FE170E00CC0220F331F441FF7
:100EF000551F16950795F794E7946150704077FD5C
:100F000036C0D801C70181709070A070B070892B75
:100F1000C9F080E090E0220E331E441E551E2216BA
:100F200033064406550610F481E090E0AA2797FDA9
:100F3000A095BA2F8A0D9B1DAC1DBD1D680E791E94
:100F40008A1E9B1EAA0CBB1CCC1CDD1C57FFCDCFE0
:100F500081E090E0A0E0B0E0A82AB92ACA2ADB2A02
:100F6000C4CF823009F095CF62E670E076C022816E
:100F700033818B859C85280F391F2E5F3F4FA90138
:100F800060E091818A85981361E06A8B97FE0FC0BB
:100F90002FC0CA010197AC019C01660C771C881C0C
:100FA000991C57FC41C0220C331C441C551C90E07A
:100FB000691690E0790690E0890690E4990648F376
:100FC0003C8B2B8BD401C3018F779070A070B070D5
:100FD00080349105A105B10581F16D8A7E8A8F8AE1
:100FE000988E83E0898B61E170E06C0F7D1F35C0C6
:100FF0002F5F3F4FA901D401C30181709070A07091
:10100000B070892B61F0569447943794279480E010
:1010100090E0A0E0B0E8282A392A4A2A5B2A969470
:10102000879477946794C3CF81E090E0A0E0B0E02C
:10103000682A792A8A2A9B2AB6CF67FC05C0211420
:1010400031044104510449F280E490E0A0E0B0E0B2
:10105000680E791E8A1E9B1EC0CFCB010E94400ADB
:10106000DC01CB01BC01CD01E2E1A0960C94310C76
:10107000A8E1B0E0EEE3F8E00C941D0CDC01CB013C
:10108000898B9A8BAB8BBC8B2D8B3E8B4F8B588F68
:10109000BE016F5F7F4FCE0141960E94280B8E01EB
:1010A000075F1F4FB801CE0145960E94280BFE0135
:1010B00031962981223008F45FC03985323010F42E
:1010C000B8017BC081819A8589278183243009F406
:1010D00055C0223009F452C0343009F454C03230C3
:1010E00009F458C06B817C818B859C85681B790BCA
:1010F0002D813E814F815885ED84FE840F851889AE
:101100002E153F054007510730F4220F331F441FAF
:10111000551F615070407C836B8380E090E0A0E0BD
:10112000B0E4AA24BB2465012E153F0540075107F2
:1011300040F0A82AB92ACA2ADB2A2E193F09400BF7
:10114000510BB695A79597958795220F331F441F8E
:10115000551F0097A105B10539F7D601C5018F7755
:101160009070A070B07080349105A105B105A9F010
:10117000A482B582C682D782BF011FC02317E1F7C0
:1011800062E670E01AC01D821E821F8218861C82D1
:101190001B82F2CF84E08983EFCFA7FC05C0211525
:1011A00031054105510521F380E490E0A0E0B0E075
:1011B000A80EB91ECA1EDB1EDBCFCB010E94400A5F
:1011C000DC01CB01BC01CD01EAE068960C94390C3E
:1011D000A8E1B0E0EEEEF8E00C94230CDC01CB01CA
:1011E000898B9A8BAB8BBC8B2D8B3E8B4F8B588F07
:1011F000BE016F5F7F4FCE0141960E94280B8E018A
:10120000075F1F4FB801CE0145960E94280B8981C8
:10121000823018F08985823018F42FEF3FEF09C033
:10122000B801CE0101960E94A20B282F332727FD7B
:101230003095C901E4E068960C943F0CA8E1B0E059
:10124000E4E2F9E00C94230CDC01CB01898B9A8B4E
:10125000AB8BBC8B2D8B3E8B4F8B588FBE016F5F42
:101260007F4FCE0141960E94280B8E01075F1F4FD2
:10127000B801CE0145960E94280B8981823018F072
:101280008985823018F42FEF3FEF09C0B801CE01F5
:1012900001960E94A20B282F332727FD3095C90104
:1012A000E4E068960C943F0CA8E1B0E0EAE5F9E0D0
:1012B0000C94230CDC01CB01898B9A8BAB8BBC8B00
:1012C0002D8B3E8B4F8B588FBE016F5F7F4FCE01B2
:1012D00041960E94280B8E01075F1F4FB801CE0177
:1012E00045960E94280B8981823018F089858230CA
:1012F00018F421E030E009C0B801CE0101960E9447
:10130000A20B282F332727FD3095C901E4E068960A
:101310000C943F0CA8E0B0E0E0E9F9E00C94210C5B
:101320009B01AC017B018C01EE2417FDE394FF24AB
:1013300000271127EA82211531054105510539F4AD
:1013400082E08983CE0101960E94400A43C083E077
:1013500089836EE170E0CB01EE2031F579018A01DD
:10136000A80197012030E0E03E07E0E04E07E0E40E
:101370005E0798F479018A01EE0CFF1C001F111F13
:101380000197BC01A8019701E0E0EE16E0E0FE063F
:10139000E0E00E07E0E41E0768F3ED82FE820F83B3
:1013A00018877C836B83CECF2030E0E03E07E0E0FF
:1013B0004E07E0E85E0741F0EE24FF248701E21AC1
:1013C000F30A040B150BCCCF7C836B8360E070E0D9
:1013D00080E09FECE6E028960C943D0CACE0B0E099
:1013E000E4EFF9E00C94250CDC01CB0189879A87A6
:1013F000AB87BC87BE016F5F7F4FCE0109960E940D
:10140000280B8981823011F0823028F460E070E08E
:1014100080E090E031C0843039F02B813C8137FD91
:10142000F5CF2F3131056CF08A81882329F060E0F7
:1014300070E080E090E820C06FEF7FEF8FEF9FE7D4
:101440001BC08EE190E0821B930B2D813E814F816A
:10145000588504C056954795379527958A95D2F7B4
:101460008A81882339F050954095309521953F4FDA
:101470004F4F5F4FCA01B901E2E02C960C94410C2A
:10148000A0E0B0E0E6E4FAE00C941B0C8824992478
:101490005401DC01FC012481358146815781818121
:1014A000082F112760E070E08C91823020F46FEFFC
:1014B00070E04061A4C0843009F464C0823009F453
:1014C00063C0211531054105510509F498C0FD019E
:1014D00082819381FFEF82389F070CF050C0A2E811
:1014E000EA2EAFEFFA2EE81AF90A8AE1E816F104BB
:1014F0000CF06BC06B0181E090E0A0E0B0E00E2C3E
:1015000004C0880F991FAA1FBB1F0A94D2F7019726
:10151000A109B10982239323A423B5230097A10530
:10152000B10519F0F1E0CF2ED12C04C056954795A6
:1015300037952795EA94D2F7C601AA2797FDA0957B
:10154000BA2F282B392B4A2B5B2BDA01C9018F7755
:101550009070A070B07080349105A105B105D1F1F3
:10156000215C3F4F4F4F5F4F2030E0E03E07E0E00F
:101570004E07E0E45E0708F161E070E01EC08038CD
:1015800091053CF06FEF70E020E030E040E050E08B
:1015900036C0BC0161587F4FDA01C9018F77907066
:1015A000A070B07080349105A105B105D1F0215C27
:1015B0003F4F4F4F5F4F57FD1BC097E056954795E4
:1015C000379527959A95D1F71AC020E030E040E092
:1015D00050E0BBCF27FFC8CF205C3F4F4F4F5F4F3E
:1015E000C3CF27FFE8CF205C3F4F4F4F5F4FE3CF84
:1015F00056954795379527956F5F7F4FDECF822EA3
:10160000932E942F9F778A2D8078A82EA92A962F23
:101610009795992797958A2D8F77A82EA92A769541
:101620006795962F9F778B2D8078B82EB92A902FAB
:101630009795992797958B2D8F77B82EB92AD50135
:10164000C401BC01CD01ECE0CDB7DEB70C94370C82
:10165000CF93DF93FC01DB01408151812281622F16
:101660006F7770E0221F2227221F9381892F880F16
:10167000822B282F3327991F9927991FED019983D2
:101680002115310541F44115510561057105E1F45C
:1016900082E08C9354C02F3F310509F441C02F578D
:1016A0003040FD013383228383E08C9387E0440F35
:1016B000551F661F771F8A95D1F77064ED014C8323
:1016C0005D836E837F833BC022E83FEFF901C7E073
:1016D000440F551F661F771FCA95D1F783E08C937F
:1016E000403080E0580780E0680780E4780778F4AD
:1016F000440F551F661F771F21503040F9014030BD
:10170000C0E05C07C0E06C07C0E47C0788F3ED0133
:10171000FB83EA83FD0144835583668377830FC08F
:10172000411551056105710519F484E08C9307C0DA
:1017300064FF03C081E08C93C1CF1C92BFCFDF91C7
:10174000CF9108950F931F93CF93DF93FC01DB019B
:101750008081823018F09C91923018F461E070E042
:101760005EC08430C1F0843001F1943009F447C088
:10177000823009F44BC0823009F44EC09230A9F097
:101780004181ED0189814817B9F0442389F08FEF39
:101790009FEFBC0144C0943031F7EB018981682F81
:1017A00077278181681B71093AC08181882379F785
:1017B00081E090E0BC0133C022813381ED018A8158
:1017C0009B81821793070CF3281739079CF004813B
:1017D000158126813781FD0164817581868197811C
:1017E000601771078207930780F20617170728070B
:1017F000390778F4442359F281E090E0DBCFFD0112
:101800008181882321F281E090E0D4CF923009F0E9
:10181000B2CF60E070E003C0ED018981F2CFCB016F
:10182000DF91CF911F910F9108952F923F924F9288
:101830005F926F927F928F929F92AF92BF92CF9260
:10184000DF92EF92FF920F931F93CF93DF93CDB769
:10185000DEB7CA1BDB0B0FB6F894DEBF0FBECDBFE1
:1018600009942A88398848885F846E847D848C84B2
:101870009B84AA84B984C884DF80EE80FD800C81BB
:101880001B81AA81B981CE0FD11D0FB6F894DEBF9E
:081890000FBECDBFED0108956C
:0A1898001E320000000000000000F6
:00000001FF
